{
  "contractName": "Campaign",
  "abi": [
    {
      "inputs": [
        {
          "internalType": "uint256",
          "name": "_minimumContribution",
          "type": "uint256"
        },
        {
          "internalType": "address",
          "name": "creator",
          "type": "address"
        }
      ],
      "stateMutability": "nonpayable",
      "type": "constructor"
    },
    {
      "anonymous": false,
      "inputs": [
        {
          "indexed": false,
          "internalType": "string",
          "name": "actionTaken",
          "type": "string"
        }
      ],
      "name": "CampaignAction",
      "type": "event"
    },
    {
      "inputs": [
        {
          "internalType": "address",
          "name": "",
          "type": "address"
        }
      ],
      "name": "approvals",
      "outputs": [
        {
          "internalType": "bool",
          "name": "",
          "type": "bool"
        }
      ],
      "stateMutability": "view",
      "type": "function",
      "constant": true
    },
    {
      "inputs": [
        {
          "internalType": "address",
          "name": "",
          "type": "address"
        }
      ],
      "name": "approvers",
      "outputs": [
        {
          "internalType": "bool",
          "name": "",
          "type": "bool"
        }
      ],
      "stateMutability": "view",
      "type": "function",
      "constant": true
    },
    {
      "inputs": [],
      "name": "approversCount",
      "outputs": [
        {
          "internalType": "uint256",
          "name": "",
          "type": "uint256"
        }
      ],
      "stateMutability": "view",
      "type": "function",
      "constant": true
    },
    {
      "inputs": [],
      "name": "manager",
      "outputs": [
        {
          "internalType": "address",
          "name": "",
          "type": "address"
        }
      ],
      "stateMutability": "view",
      "type": "function",
      "constant": true
    },
    {
      "inputs": [],
      "name": "minimumContribution",
      "outputs": [
        {
          "internalType": "uint256",
          "name": "",
          "type": "uint256"
        }
      ],
      "stateMutability": "view",
      "type": "function",
      "constant": true
    },
    {
      "inputs": [
        {
          "internalType": "uint256",
          "name": "",
          "type": "uint256"
        }
      ],
      "name": "requests",
      "outputs": [
        {
          "internalType": "string",
          "name": "description",
          "type": "string"
        },
        {
          "internalType": "uint256",
          "name": "value",
          "type": "uint256"
        },
        {
          "internalType": "address payable",
          "name": "recipient",
          "type": "address"
        },
        {
          "internalType": "bool",
          "name": "complete",
          "type": "bool"
        },
        {
          "internalType": "uint256",
          "name": "approvalCount",
          "type": "uint256"
        }
      ],
      "stateMutability": "view",
      "type": "function",
      "constant": true
    },
    {
      "inputs": [],
      "name": "contribute",
      "outputs": [],
      "stateMutability": "payable",
      "type": "function",
      "payable": true
    },
    {
      "inputs": [
        {
          "internalType": "string",
          "name": "_description",
          "type": "string"
        },
        {
          "internalType": "uint256",
          "name": "_value",
          "type": "uint256"
        },
        {
          "internalType": "address payable",
          "name": "_recipient",
          "type": "address"
        }
      ],
      "name": "createRequest",
      "outputs": [],
      "stateMutability": "nonpayable",
      "type": "function"
    },
    {
      "inputs": [
        {
          "internalType": "uint256",
          "name": "_index",
          "type": "uint256"
        }
      ],
      "name": "approveRequest",
      "outputs": [],
      "stateMutability": "nonpayable",
      "type": "function"
    },
    {
      "inputs": [
        {
          "internalType": "uint256",
          "name": "_index",
          "type": "uint256"
        }
      ],
      "name": "finalizeRequest",
      "outputs": [],
      "stateMutability": "nonpayable",
      "type": "function"
    },
    {
      "inputs": [],
      "name": "getSummary",
      "outputs": [
        {
          "internalType": "uint256",
          "name": "",
          "type": "uint256"
        },
        {
          "internalType": "uint256",
          "name": "",
          "type": "uint256"
        },
        {
          "internalType": "uint256",
          "name": "",
          "type": "uint256"
        },
        {
          "internalType": "uint256",
          "name": "",
          "type": "uint256"
        },
        {
          "internalType": "address",
          "name": "",
          "type": "address"
        }
      ],
      "stateMutability": "view",
      "type": "function",
      "constant": true
    },
    {
      "inputs": [],
      "name": "getRequestsCount",
      "outputs": [
        {
          "internalType": "uint256",
          "name": "",
          "type": "uint256"
        }
      ],
      "stateMutability": "view",
      "type": "function",
      "constant": true
    }
  ],
  "bytecode": "0x608060405234801561001057600080fd5b50604051610de7380380610de783398101604081905261002f916100c0565b600080546001600160a01b0383166001600160a01b031990911617905560018290556040517f7ff008437136cad944b8ea3d77027090b4b4065ca3648b0320a2bc74c32349c3906100b19060208082526014908201527f43616d706169676e207761732063726561746564000000000000000000000000604082015260600190565b60405180910390a150506100fd565b600080604083850312156100d357600080fd5b825160208401519092506001600160a01b03811681146100f257600080fd5b809150509250929050565b610cdb8061010c6000396000f3fe6080604052600436106100a75760003560e01c806381d12c581161006457806381d12c58146101e157806382fde093146102125780638a9cfd5514610228578063937e09b114610248578063d7bb99ba1461025e578063d7d1bbdb1461026657600080fd5b806303441006146100ac5780630a144391146100ce5780633410452a146101135780634051ddac14610132578063481c6a75146101795780635d0341ba146101b1575b600080fd5b3480156100b857600080fd5b506100cc6100c7366004610b24565b610286565b005b3480156100da57600080fd5b506100fe6100e9366004610a35565b60026020526000908152604090205460ff1681565b60405190151581526020015b60405180910390f35b34801561011f57600080fd5b506005545b60405190815260200161010a565b34801561013e57600080fd5b506001546005546004546000546040805194855247602086015284019290925260608301526001600160a01b0316608082015260a00161010a565b34801561018557600080fd5b50600054610199906001600160a01b031681565b6040516001600160a01b03909116815260200161010a565b3480156101bd57600080fd5b506100fe6101cc366004610a35565b60036020526000908152604090205460ff1681565b3480156101ed57600080fd5b506102016101fc366004610b24565b6104cf565b60405161010a959493929190610b3d565b34801561021e57600080fd5b5061012460045481565b34801561023457600080fd5b506100cc610243366004610a59565b6105ae565b34801561025457600080fd5b5061012460015481565b6100cc610734565b34801561027257600080fd5b506100cc610281366004610b24565b610816565b3360009081526002602052604090205460ff166102e55760405162461bcd60e51b81526020600482015260186024820152772cb7bab91036bab9ba1031329030b71030b8383937bb32b960411b60448201526064015b60405180910390fd5b6000600582815481106102fa576102fa610c41565b906000526020600020906004020190508060020160149054906101000a900460ff161561037e5760405162461bcd60e51b815260206004820152602c60248201527f596f752063616e27742066696e616c697a6520612072657175657374206d6f7260448201526b65207468616e206f6e63652160a01b60648201526084016102dc565b600260045461038d9190610bbb565b81600301541161042b5760405162461bcd60e51b815260206004820152605860248201527f4174206c6561737420353025206f662074686520617070726f76657273206d7560448201527f7374206861766520617070726f7665642074686973207265717565737420626560648201527f666f72652069742063616e2062652066696e616c697a65640000000000000000608482015260a4016102dc565b60028101805460ff60a01b198116600160a01b1790915560018201546040516001600160a01b039092169181156108fc0291906000818181858888f1935050505015801561047d573d6000803e3d6000fd5b50600080516020610c868339815191526040516104c39060208082526015908201527414995c5d595cdd081dd85cc8199a5b985b1a5e9959605a1b604082015260600190565b60405180910390a15050565b600581815481106104df57600080fd5b906000526020600020906004020160009150905080600001805461050290610bdd565b80601f016020809104026020016040519081016040528092919081815260200182805461052e90610bdd565b801561057b5780601f106105505761010080835404028352916020019161057b565b820191906000526020600020905b81548152906001019060200180831161055e57829003601f168201915b5050505060018301546002840154600390940154929390926001600160a01b0382169250600160a01b90910460ff169085565b6000546001600160a01b031633146106185760405162461bcd60e51b815260206004820152602760248201527f4f6e6c7920746865206f776e65722063616e20706572666f726d207468697320604482015266616374696f6e2160c81b60648201526084016102dc565b6040805160a08101825284815260208082018590526001600160a01b0384169282019290925260006060820181905260808201819052600580546001810182559152815180519293849360049093027f036b6384b5eca791c62761152d0c79bb0604c104a5fb6f4eb0703f3154bb3db00192610697928492019061098c565b506020820151600182015560408083015160028301805460608601511515600160a01b026001600160a81b03199091166001600160a01b039093169290921791909117905560809092015160039091015551600080516020610c8683398151915290610726906020808252600f908201526e14995c5d595cdd0818dc99585d1959608a1b604082015260600190565b60405180910390a150505050565b60015434101561079a5760405162461bcd60e51b815260206004820152602b60248201527f596f75206d75737420636f6e747269627574652061206d696e696d756d20616d60448201526a6f756e74206f662077656960a81b60648201526084016102dc565b336000908152600260205260408120805460ff1916600117905560048054916107c283610c18565b9190505550600080516020610c8683398151915260405161080c90602080825260159082015274436f6e747269627574696f6e20776173206d61646560581b604082015260600190565b60405180910390a1565b3360009081526002602052604090205460ff166108705760405162461bcd60e51b81526020600482015260186024820152772cb7bab91036bab9ba1031329030b71030b8383937bb32b960411b60448201526064016102dc565b60006005828154811061088557610885610c41565b6000918252602080832033845260039091526040909220546004909102909101915060ff16156109085760405162461bcd60e51b815260206004820152602860248201527f596f752063616e277420617070726f76652072657175657374206d6f7265207460448201526768616e206f6e636560c01b60648201526084016102dc565b60038101805490600061091a83610c18565b9190505550610947336001600160a01b03166000908152600360205260409020805460ff19166001179055565b600080516020610c868339815191526040516104c390602080825260159082015274105c1c1c9bdd985b081c995c5d595cdd081cd95b9d605a1b604082015260600190565b82805461099890610bdd565b90600052602060002090601f0160209004810192826109ba5760008555610a00565b82601f106109d357805160ff1916838001178555610a00565b82800160010185558215610a00579182015b82811115610a005782518255916020019190600101906109e5565b50610a0c929150610a10565b5090565b5b80821115610a0c5760008155600101610a11565b8035610a3081610c6d565b919050565b600060208284031215610a4757600080fd5b8135610a5281610c6d565b9392505050565b600080600060608486031215610a6e57600080fd5b833567ffffffffffffffff80821115610a8657600080fd5b818601915086601f830112610a9a57600080fd5b813581811115610aac57610aac610c57565b604051601f8201601f19908116603f01168101908382118183101715610ad457610ad4610c57565b81604052828152896020848701011115610aed57600080fd5b82602086016020830137600060208483010152809750505050505060208401359150610b1b60408501610a25565b90509250925092565b600060208284031215610b3657600080fd5b5035919050565b60a08152600086518060a084015260005b81811015610b6b576020818a0181015160c0868401015201610b4e565b81811115610b7d57600060c083860101525b5060208301879052601f01601f1916820160c0019050610ba860408301866001600160a01b03169052565b9215156060820152608001529392505050565b600082610bd857634e487b7160e01b600052601260045260246000fd5b500490565b600181811c90821680610bf157607f821691505b60208210811415610c1257634e487b7160e01b600052602260045260246000fd5b50919050565b6000600019821415610c3a57634e487b7160e01b600052601160045260246000fd5b5060010190565b634e487b7160e01b600052603260045260246000fd5b634e487b7160e01b600052604160045260246000fd5b6001600160a01b0381168114610c8257600080fd5b5056fe7ff008437136cad944b8ea3d77027090b4b4065ca3648b0320a2bc74c32349c3a2646970667358221220ea015cb9ec0b9ef6694ad58e35e3c932e0ccfaf000fc44122ac6ff404c81c3f764736f6c63430008070033",
  "immutableReferences": {},
  "source": "// SPDX-License-Identifier: MIT\npragma solidity ^0.8.1;\n\n// import \"@openzeppelin/contracts/access/Ownable.sol\";\n\ncontract CampaignFactory {\n    address[] public deployedContracts;\n\n    function createCampaign(uint256 minimum) public {\n        address newCampaign = address(new Campaign(minimum, msg.sender));\n        deployedContracts.push(newCampaign);\n\n        emit CampaignFactoryAction(\"New campaign deployed via CampaignFactory\");\n    }\n\n    function getDeployedContracts() public view returns (address[] memory) {\n        \n\n        return deployedContracts;\n    }\n\n    event CampaignFactoryAction(string actionTaken);\n}\n\ncontract Campaign {\n    event CampaignAction(string actionTaken);\n\n    address public manager;\n    uint256 public minimumContribution;\n    mapping(address => bool) public approvers;\n    mapping(address => bool) public approvals;\n    uint256 public approversCount;\n\n    struct Request {\n        string description;\n        uint256 value;\n        address payable recipient;\n        bool complete;\n        uint256 approvalCount;\n    }\n\n    Request[] public requests;\n\n    constructor(uint256 _minimumContribution, address creator) {\n        manager = creator;\n        minimumContribution = _minimumContribution;\n\n        emit CampaignAction(\"Campaign was created\");\n    }\n\n    function contribute() public payable {\n        require(\n            msg.value >= minimumContribution,\n            \"You must contribute a minimum amount of wei\"\n        );\n\n        approvers[msg.sender] = true;\n\n        approversCount++;\n\n        emit CampaignAction(\"Contribution was made\");\n    }\n\n    function createRequest(\n        string memory _description,\n        uint256 _value,\n        address payable _recipient\n    ) public onlyOwner {\n        Request memory newRequest = Request({\n            description: _description,\n            value: _value,\n            recipient: _recipient,\n            complete: false,\n            approvalCount: 0\n        });\n\n        requests.push(newRequest);\n\n        emit CampaignAction(\"Request created\");\n    }\n\n    function approveRequest(uint256 _index) public onlyApprover {\n        Request storage request = requests[_index];\n\n        require(\n            !approvals[msg.sender],\n            \"You can't approve request more than once\"\n        );\n\n        request.approvalCount++;\n\n        addApprovals(msg.sender);\n\n        emit CampaignAction(\"Approval request sent\");\n    }\n\n    function addApprovals(address approver) private {\n        approvals[approver] = true;\n    }\n\n    function finalizeRequest(uint256 _index) public onlyApprover {\n        //using storage keyword to show that we are looking at the same Request that already exist in storage\n        Request storage request = requests[_index];\n\n        require(\n            !request.complete,\n            \"You can't finalize a request more than once!\"\n        );\n        require(\n            request.approvalCount > (approversCount / 2),\n            \"At least 50% of the approvers must have approved this request before it can be finalized\"\n        );\n\n        request.complete = true;\n        request.recipient.transfer(request.value);\n\n        emit CampaignAction(\"Request was finalized\");\n    }\n\n    function getSummary() public view returns (uint, uint, uint, uint, address) {\n        return (\n            minimumContribution,\n            address(this).balance,\n            requests.length,\n            approversCount,\n            manager\n        );\n    }\n\n    function getRequestsCount() public view returns (uint) {\n        return requests.length;\n    }\n\n    modifier onlyApprover() {\n        require(approvers[msg.sender], \"Your must be an approver\");\n        _;\n    }\n\n    modifier onlyOwner() {\n        require(\n            manager == msg.sender,\n            \"Only the owner can perform this action!\"\n        );\n        _;\n    }\n\n    // function renounceOwnership() public view override onlyOwner {\n    //     revert(\"You can't renounceOwnership in this smart contract\");\n    // }\n\n    // function transferOwnership(address) public view override onlyOwner {\n    //     revert(\"You can't transfer Ownership of this smart contract\");\n    // }\n}\n",
  "sourcePath": "/Users/sheldonsides/Documents/Dev/BlockChain/Ethereum/Campaign/contracts/Campaign.sol",
  "compiler": {
    "name": "solc",
    "version": "0.8.7+commit.e28d00a7.Emscripten.clang"
  },
  "schemaVersion": "3.4.2",
  "updatedAt": "2021-08-25T03:30:13.205Z",
  "networkType": "ethereum",
  "devdoc": {
    "kind": "dev",
    "methods": {},
    "version": 1
  },
  "userdoc": {
    "kind": "user",
    "methods": {},
    "version": 1
  }
}